{
  "contractName": "ipns",
  "abi": [
    {
      "inputs": [],
      "stateMutability": "payable",
      "type": "constructor"
    },
    {
      "inputs": [],
      "name": "buyer",
      "outputs": [
        {
          "internalType": "address payable",
          "name": "",
          "type": "address"
        }
      ],
      "stateMutability": "view",
      "type": "function"
    },
    {
      "inputs": [],
      "name": "seller",
      "outputs": [
        {
          "internalType": "address payable",
          "name": "",
          "type": "address"
        }
      ],
      "stateMutability": "view",
      "type": "function"
    },
    {
      "inputs": [],
      "name": "state",
      "outputs": [
        {
          "internalType": "enum ipns.State",
          "name": "",
          "type": "uint8"
        }
      ],
      "stateMutability": "view",
      "type": "function"
    },
    {
      "inputs": [],
      "name": "value",
      "outputs": [
        {
          "internalType": "uint256",
          "name": "",
          "type": "uint256"
        }
      ],
      "stateMutability": "view",
      "type": "function"
    },
    {
      "inputs": [],
      "name": "pay",
      "outputs": [],
      "stateMutability": "payable",
      "type": "function"
    },
    {
      "inputs": [],
      "name": "guarantee",
      "outputs": [],
      "stateMutability": "nonpayable",
      "type": "function"
    },
    {
      "inputs": [],
      "name": "confirm",
      "outputs": [],
      "stateMutability": "nonpayable",
      "type": "function"
    },
    {
      "inputs": [],
      "name": "cancel",
      "outputs": [],
      "stateMutability": "nonpayable",
      "type": "function"
    }
  ],
  "bytecode": "0x608060405233600160006101000a81548173ffffffffffffffffffffffffffffffffffffffff021916908373ffffffffffffffffffffffffffffffffffffffff1602179055503460008190555061091e8061005b6000396000f3fe60806040526004361061007b5760003560e01c80637022b58e1161004e5780637022b58e146100f75780637150d8ae1461010e578063c19d93fb14610139578063ea8a1af0146101645761007b565b806308551a53146100805780631b9265b8146100ab578063263c4b53146100b55780633fa4f245146100cc575b600080fd5b34801561008c57600080fd5b5061009561017b565b6040516100a29190610796565b60405180910390f35b6100b36101a1565b005b3480156100c157600080fd5b506100ca61025f565b005b3480156100d857600080fd5b506100e1610327565b6040516100ee91906107ca565b60405180910390f35b34801561010357600080fd5b5061010c61032d565b005b34801561011a57600080fd5b5061012361046d565b6040516101309190610796565b60405180910390f35b34801561014557600080fd5b5061014e610493565b60405161015b919061085c565b60405180910390f35b34801561017057600080fd5b506101796104a6565b005b600160009054906101000a900473ffffffffffffffffffffffffffffffffffffffff1681565b60008060038111156101b6576101b56107e5565b5b600260149054906101000a900460ff1660038111156101d8576101d76107e5565b5b146101e257600080fd5b60005434146101f057600080fd5b33600260006101000a81548173ffffffffffffffffffffffffffffffffffffffff021916908373ffffffffffffffffffffffffffffffffffffffff1602179055506001600260146101000a81548160ff02191690836003811115610257576102566107e5565b5b021790555050565b600160009054906101000a900473ffffffffffffffffffffffffffffffffffffffff1673ffffffffffffffffffffffffffffffffffffffff163373ffffffffffffffffffffffffffffffffffffffff16146102b957600080fd5b60018060038111156102ce576102cd6107e5565b5b600260149054906101000a900460ff1660038111156102f0576102ef6107e5565b5b146102fa57600080fd5b60028060146101000a81548160ff0219169083600381111561031f5761031e6107e5565b5b021790555050565b60005481565b600260009054906101000a900473ffffffffffffffffffffffffffffffffffffffff1673ffffffffffffffffffffffffffffffffffffffff163373ffffffffffffffffffffffffffffffffffffffff161461038757600080fd5b600280600381111561039c5761039b6107e5565b5b600260149054906101000a900460ff1660038111156103be576103bd6107e5565b5b146103c857600080fd5b600160009054906101000a900473ffffffffffffffffffffffffffffffffffffffff1673ffffffffffffffffffffffffffffffffffffffff166108fc600054600261041391906108a6565b9081150290604051600060405180830381858888f1935050505015801561043e573d6000803e3d6000fd5b506003600260146101000a81548160ff02191690836003811115610465576104646107e5565b5b021790555050565b600260009054906101000a900473ffffffffffffffffffffffffffffffffffffffff1681565b600260149054906101000a900460ff1681565b600160009054906101000a900473ffffffffffffffffffffffffffffffffffffffff1673ffffffffffffffffffffffffffffffffffffffff163373ffffffffffffffffffffffffffffffffffffffff161461050057600080fd5b60006003811115610514576105136107e5565b5b600260149054906101000a900460ff166003811115610536576105356107e5565b5b036105d657600160009054906101000a900473ffffffffffffffffffffffffffffffffffffffff1673ffffffffffffffffffffffffffffffffffffffff166108fc6000549081150290604051600060405180830381858888f193505050501580156105a5573d6000803e3d6000fd5b506003600260146101000a81548160ff021916908360038111156105cc576105cb6107e5565b5b0217905550610753565b600160038111156105ea576105e96107e5565b5b600260149054906101000a900460ff16600381111561060c5761060b6107e5565b5b148061064b575060026003811115610627576106266107e5565b5b600260149054906101000a900460ff166003811115610649576106486107e5565b5b145b1561075257600260009054906101000a900473ffffffffffffffffffffffffffffffffffffffff1673ffffffffffffffffffffffffffffffffffffffff166108fc6000549081150290604051600060405180830381858888f193505050501580156106ba573d6000803e3d6000fd5b50600160009054906101000a900473ffffffffffffffffffffffffffffffffffffffff1673ffffffffffffffffffffffffffffffffffffffff166108fc6000549081150290604051600060405180830381858888f19350505050158015610725573d6000803e3d6000fd5b506003600260146101000a81548160ff0219169083600381111561074c5761074b6107e5565b5b02179055505b5b565b600073ffffffffffffffffffffffffffffffffffffffff82169050919050565b600061078082610755565b9050919050565b61079081610775565b82525050565b60006020820190506107ab6000830184610787565b92915050565b6000819050919050565b6107c4816107b1565b82525050565b60006020820190506107df60008301846107bb565b92915050565b7f4e487b7100000000000000000000000000000000000000000000000000000000600052602160045260246000fd5b60048110610825576108246107e5565b5b50565b600081905061083682610814565b919050565b600061084682610828565b9050919050565b6108568161083b565b82525050565b6000602082019050610871600083018461084d565b92915050565b7f4e487b7100000000000000000000000000000000000000000000000000000000600052601160045260246000fd5b60006108b1826107b1565b91506108bc836107b1565b92508282026108ca816107b1565b915082820484148315176108e1576108e0610877565b5b509291505056fea2646970667358221220205c9d0d38d188fedd3d39d2e689a8a9ad5698120fe5471e285ff8813b5c750664736f6c63430008110033",
  "immutableReferences": {},
  "source": "// SPDX-License-Identifier: UNLICENSED\r\npragma solidity >=0.7.0 <0.9.0;\r\n\r\n\r\ncontract ipns {\r\n    uint public value;\r\n    address payable public seller;\r\n    address payable public buyer;\r\n\r\n    enum State {Deployed, Payed, Guarantee, Completed}\r\n    State public state;\r\n\r\n    constructor() payable {\r\n        seller = payable(msg.sender);\r\n        value = msg.value;\r\n\r\n    }\r\n\r\n    modifier isSeller() {\r\n        require(msg.sender == seller);\r\n        _; \r\n    }\r\n\r\n    modifier isBuyer() {\r\n        require(msg.sender == buyer);\r\n        _;\r\n    }\r\n\r\n    modifier inState(State state_) {\r\n        require(state == state_);\r\n        _;\r\n    }\r\n\r\n\r\n    function pay() public payable inState(State.Deployed) {\r\n        require(msg.value == value);\r\n        buyer = payable(msg.sender);\r\n        state = State.Payed;\r\n    }\r\n\r\n    function guarantee() public isSeller inState(State.Payed) {\r\n        state = State.Guarantee;\r\n    }\r\n\r\n    function confirm() public isBuyer inState(State.Guarantee) {\r\n        seller.transfer(2 * value);\r\n        state = State.Completed;\r\n    }\r\n    \r\n    function cancel() public isSeller {\r\n        if (state == State.Deployed) {\r\n            seller.transfer(value);\r\n            state = State.Completed;\r\n        }\r\n        else if (state == State.Payed || state == State.Guarantee) {\r\n            buyer.transfer(value);\r\n            seller.transfer(value);\r\n            state = State.Completed;\r\n        }\r\n\r\n    }\r\n\r\n\r\n    \r\n}\r\n",
  "sourcePath": "C:\\Users\\AMD\\magistrska-prog\\pogodba\\contracts\\pogodba1.sol",
  "compiler": {
    "name": "solc",
    "version": "0.8.17+commit.8df45f5f.Emscripten.clang"
  },
  "schemaVersion": "3.4.10",
  "updatedAt": "2022-10-24T15:44:20.836Z",
  "devdoc": {
    "kind": "dev",
    "methods": {},
    "version": 1
  },
  "userdoc": {
    "kind": "user",
    "methods": {},
    "version": 1
  }
}